{
  "contractName": "StarNotary",
  "abi": [
    {
      "constant": true,
      "inputs": [
        {
          "name": "interfaceId",
          "type": "bytes4"
        }
      ],
      "name": "supportsInterface",
      "outputs": [
        {
          "name": "",
          "type": "bool"
        }
      ],
      "payable": false,
      "stateMutability": "view",
      "type": "function"
    },
    {
      "constant": true,
      "inputs": [
        {
          "name": "",
          "type": "uint256"
        }
      ],
      "name": "starsForSale",
      "outputs": [
        {
          "name": "",
          "type": "uint256"
        }
      ],
      "payable": false,
      "stateMutability": "view",
      "type": "function"
    },
    {
      "constant": true,
      "inputs": [
        {
          "name": "tokenId",
          "type": "uint256"
        }
      ],
      "name": "getApproved",
      "outputs": [
        {
          "name": "",
          "type": "address"
        }
      ],
      "payable": false,
      "stateMutability": "view",
      "type": "function"
    },
    {
      "constant": false,
      "inputs": [
        {
          "name": "to",
          "type": "address"
        },
        {
          "name": "tokenId",
          "type": "uint256"
        }
      ],
      "name": "approve",
      "outputs": [],
      "payable": false,
      "stateMutability": "nonpayable",
      "type": "function"
    },
    {
      "constant": false,
      "inputs": [
        {
          "name": "from",
          "type": "address"
        },
        {
          "name": "to",
          "type": "address"
        },
        {
          "name": "tokenId",
          "type": "uint256"
        }
      ],
      "name": "transferFrom",
      "outputs": [],
      "payable": false,
      "stateMutability": "nonpayable",
      "type": "function"
    },
    {
      "constant": false,
      "inputs": [
        {
          "name": "from",
          "type": "address"
        },
        {
          "name": "to",
          "type": "address"
        },
        {
          "name": "tokenId",
          "type": "uint256"
        }
      ],
      "name": "safeTransferFrom",
      "outputs": [],
      "payable": false,
      "stateMutability": "nonpayable",
      "type": "function"
    },
    {
      "constant": true,
      "inputs": [],
      "name": "tokenheigth",
      "outputs": [
        {
          "name": "",
          "type": "uint256"
        }
      ],
      "payable": false,
      "stateMutability": "view",
      "type": "function"
    },
    {
      "constant": true,
      "inputs": [
        {
          "name": "tokenId",
          "type": "uint256"
        }
      ],
      "name": "ownerOf",
      "outputs": [
        {
          "name": "",
          "type": "address"
        }
      ],
      "payable": false,
      "stateMutability": "view",
      "type": "function"
    },
    {
      "constant": true,
      "inputs": [
        {
          "name": "owner",
          "type": "address"
        }
      ],
      "name": "balanceOf",
      "outputs": [
        {
          "name": "",
          "type": "uint256"
        }
      ],
      "payable": false,
      "stateMutability": "view",
      "type": "function"
    },
    {
      "constant": true,
      "inputs": [
        {
          "name": "",
          "type": "bytes32"
        }
      ],
      "name": "starHashMap",
      "outputs": [
        {
          "name": "",
          "type": "bool"
        }
      ],
      "payable": false,
      "stateMutability": "view",
      "type": "function"
    },
    {
      "constant": false,
      "inputs": [
        {
          "name": "to",
          "type": "address"
        },
        {
          "name": "approved",
          "type": "bool"
        }
      ],
      "name": "setApprovalForAll",
      "outputs": [],
      "payable": false,
      "stateMutability": "nonpayable",
      "type": "function"
    },
    {
      "constant": false,
      "inputs": [
        {
          "name": "from",
          "type": "address"
        },
        {
          "name": "to",
          "type": "address"
        },
        {
          "name": "tokenId",
          "type": "uint256"
        },
        {
          "name": "_data",
          "type": "bytes"
        }
      ],
      "name": "safeTransferFrom",
      "outputs": [],
      "payable": false,
      "stateMutability": "nonpayable",
      "type": "function"
    },
    {
      "constant": true,
      "inputs": [
        {
          "name": "owner",
          "type": "address"
        },
        {
          "name": "operator",
          "type": "address"
        }
      ],
      "name": "isApprovedForAll",
      "outputs": [
        {
          "name": "",
          "type": "bool"
        }
      ],
      "payable": false,
      "stateMutability": "view",
      "type": "function"
    },
    {
      "anonymous": false,
      "inputs": [
        {
          "indexed": true,
          "name": "from",
          "type": "address"
        },
        {
          "indexed": true,
          "name": "to",
          "type": "address"
        },
        {
          "indexed": true,
          "name": "tokenId",
          "type": "uint256"
        }
      ],
      "name": "Transfer",
      "type": "event"
    },
    {
      "anonymous": false,
      "inputs": [
        {
          "indexed": true,
          "name": "owner",
          "type": "address"
        },
        {
          "indexed": true,
          "name": "approved",
          "type": "address"
        },
        {
          "indexed": true,
          "name": "tokenId",
          "type": "uint256"
        }
      ],
      "name": "Approval",
      "type": "event"
    },
    {
      "anonymous": false,
      "inputs": [
        {
          "indexed": true,
          "name": "owner",
          "type": "address"
        },
        {
          "indexed": true,
          "name": "operator",
          "type": "address"
        },
        {
          "indexed": false,
          "name": "approved",
          "type": "bool"
        }
      ],
      "name": "ApprovalForAll",
      "type": "event"
    },
    {
      "constant": false,
      "inputs": [
        {
          "name": "_name",
          "type": "string"
        },
        {
          "name": "_story",
          "type": "string"
        },
        {
          "name": "_dec",
          "type": "string"
        },
        {
          "name": "_mag",
          "type": "string"
        },
        {
          "name": "_cent",
          "type": "string"
        }
      ],
      "name": "createStar",
      "outputs": [],
      "payable": false,
      "stateMutability": "nonpayable",
      "type": "function"
    },
    {
      "constant": false,
      "inputs": [
        {
          "name": "_tokenId",
          "type": "uint256"
        },
        {
          "name": "_price",
          "type": "uint256"
        }
      ],
      "name": "putStarUpForSale",
      "outputs": [],
      "payable": false,
      "stateMutability": "nonpayable",
      "type": "function"
    },
    {
      "constant": false,
      "inputs": [
        {
          "name": "_tokenId",
          "type": "uint256"
        }
      ],
      "name": "buyStar",
      "outputs": [],
      "payable": true,
      "stateMutability": "payable",
      "type": "function"
    },
    {
      "constant": true,
      "inputs": [
        {
          "name": "_dec",
          "type": "string"
        },
        {
          "name": "_mag",
          "type": "string"
        },
        {
          "name": "_cent",
          "type": "string"
        }
      ],
      "name": "checkIfStarExist",
      "outputs": [
        {
          "name": "",
          "type": "bool"
        }
      ],
      "payable": false,
      "stateMutability": "view",
      "type": "function"
    },
    {
      "constant": false,
      "inputs": [
        {
          "name": "_tokenId",
          "type": "uint256"
        }
      ],
      "name": "mint",
      "outputs": [],
      "payable": false,
      "stateMutability": "nonpayable",
      "type": "function"
    },
    {
      "constant": true,
      "inputs": [
        {
          "name": "_tokenId",
          "type": "uint256"
        }
      ],
      "name": "tokenIdToStarInfo",
      "outputs": [
        {
          "name": "",
          "type": "string"
        },
        {
          "name": "",
          "type": "string"
        },
        {
          "name": "",
          "type": "string"
        },
        {
          "name": "",
          "type": "string"
        },
        {
          "name": "",
          "type": "string"
        }
      ],
      "payable": false,
      "stateMutability": "view",
      "type": "function"
    }
  ],
  "bytecode": "0x6080604052620000416301ffc9a77c01000000000000000000000000000000000000000000000000000000000262000084640100000000026401000000009004565b6200007e6380ac58cd7c01000000000000000000000000000000000000000000000000000000000262000084640100000000026401000000009004565b62000142565b63ffffffff7c010000000000000000000000000000000000000000000000000000000002817bffffffffffffffffffffffffffffffffffffffffffffffffffffffff191614151515620000d657600080fd5b6001600080837bffffffffffffffffffffffffffffffffffffffffffffffffffffffff19167bffffffffffffffffffffffffffffffffffffffffffffffffffffffff1916815260200190815260200160002060006101000a81548160ff02191690831515021790555050565b61297a80620001526000396000f300608060405260043610610107576000357c0100000000000000000000000000000000000000000000000000000000900463ffffffff16806301ffc9a71461010c5780630384153d146101705780630564b1301461027d578063081812fc146102be578063095ea7b31461032b5780631967fd981461037857806323b872dd146105ce5780632f1c34ef1461063b578063316a43611461065b57806342842e0e1461069257806356624b2c146106ff5780635f3ff33c1461072a5780636352211e146108ab57806370a08231146109185780637c953ac41461096f578063a0712d68146109b8578063a22cb465146109e5578063b88d4fde14610a34578063e985e9c514610ae7575b600080fd5b34801561011857600080fd5b5061015660048036038101908080357bffffffffffffffffffffffffffffffffffffffffffffffffffffffff19169060200190929190505050610b62565b604051808215151515815260200191505060405180910390f35b34801561017c57600080fd5b50610263600480360381019080803590602001908201803590602001908080601f0160208091040260200160405190810160405280939291908181526020018383808284378201915050505050509192919290803590602001908201803590602001908080601f0160208091040260200160405190810160405280939291908181526020018383808284378201915050505050509192919290803590602001908201803590602001908080601f0160208091040260200160405190810160405280939291908181526020018383808284378201915050505050509192919290505050610bc9565b604051808215151515815260200191505060405180910390f35b34801561028957600080fd5b506102a860048036038101908080359060200190929190505050610c07565b6040518082815260200191505060405180910390f35b3480156102ca57600080fd5b506102e960048036038101908080359060200190929190505050610c1f565b604051808273ffffffffffffffffffffffffffffffffffffffff1673ffffffffffffffffffffffffffffffffffffffff16815260200191505060405180910390f35b34801561033757600080fd5b50610376600480360381019080803573ffffffffffffffffffffffffffffffffffffffff16906020019092919080359060200190929190505050610c70565b005b34801561038457600080fd5b506103a360048036038101908080359060200190929190505050610db5565b60405180806020018060200180602001806020018060200186810386528b818151815260200191508051906020019080838360005b838110156103f35780820151818401526020810190506103d8565b50505050905090810190601f1680156104205780820380516001836020036101000a031916815260200191505b5086810385528a818151815260200191508051906020019080838360005b8381101561045957808201518184015260208101905061043e565b50505050905090810190601f1680156104865780820380516001836020036101000a031916815260200191505b50868103845289818151815260200191508051906020019080838360005b838110156104bf5780820151818401526020810190506104a4565b50505050905090810190601f1680156104ec5780820380516001836020036101000a031916815260200191505b50868103835288818151815260200191508051906020019080838360005b8381101561052557808201518184015260208101905061050a565b50505050905090810190601f1680156105525780820380516001836020036101000a031916815260200191505b50868103825287818151815260200191508051906020019080838360005b8381101561058b578082015181840152602081019050610570565b50505050905090810190601f1680156105b85780820380516001836020036101000a031916815260200191505b509a505050505050505050505060405180910390f35b3480156105da57600080fd5b50610639600480360381019080803573ffffffffffffffffffffffffffffffffffffffff169060200190929190803573ffffffffffffffffffffffffffffffffffffffff16906020019092919080359060200190929190505050611153565b005b61065960048036038101908080359060200190929190505050611222565b005b34801561066757600080fd5b5061069060048036038101908080359060200190929190803590602001909291905050506113ca565b005b34801561069e57600080fd5b506106fd600480360381019080803573ffffffffffffffffffffffffffffffffffffffff169060200190929190803573ffffffffffffffffffffffffffffffffffffffff169060200190929190803590602001909291905050506114c9565b005b34801561070b57600080fd5b506107146114ea565b6040518082815260200191505060405180910390f35b34801561073657600080fd5b506108a9600480360381019080803590602001908201803590602001908080601f0160208091040260200160405190810160405280939291908181526020018383808284378201915050505050509192919290803590602001908201803590602001908080601f0160208091040260200160405190810160405280939291908181526020018383808284378201915050505050509192919290803590602001908201803590602001908080601f0160208091040260200160405190810160405280939291908181526020018383808284378201915050505050509192919290803590602001908201803590602001908080601f0160208091040260200160405190810160405280939291908181526020018383808284378201915050505050509192919290803590602001908201803590602001908080601f01602080910402602001604051908101604052809392919081815260200183838082843782019150505050505091929192905050506114f0565b005b3480156108b757600080fd5b506108d660048036038101908080359060200190929190505050611be2565b604051808273ffffffffffffffffffffffffffffffffffffffff1673ffffffffffffffffffffffffffffffffffffffff16815260200191505060405180910390f35b34801561092457600080fd5b50610959600480360381019080803573ffffffffffffffffffffffffffffffffffffffff169060200190929190505050611c60565b6040518082815260200191505060405180910390f35b34801561097b57600080fd5b5061099e6004803603810190808035600019169060200190929190505050611ce4565b604051808215151515815260200191505060405180910390f35b3480156109c457600080fd5b506109e360048036038101908080359060200190929190505050611d04565b005b3480156109f157600080fd5b50610a32600480360381019080803573ffffffffffffffffffffffffffffffffffffffff169060200190929190803515159060200190929190505050611d11565b005b348015610a4057600080fd5b50610ae5600480360381019080803573ffffffffffffffffffffffffffffffffffffffff169060200190929190803573ffffffffffffffffffffffffffffffffffffffff16906020019092919080359060200190929190803590602001908201803590602001908080601f0160208091040260200160405190810160405280939291908181526020018383808284378201915050505050509192919290505050611e4d565b005b348015610af357600080fd5b50610b48600480360381019080803573ffffffffffffffffffffffffffffffffffffffff169060200190929190803573ffffffffffffffffffffffffffffffffffffffff169060200190929190505050611e75565b604051808215151515815260200191505060405180910390f35b6000806000837bffffffffffffffffffffffffffffffffffffffffffffffffffffffff19167bffffffffffffffffffffffffffffffffffffffffffffffffffffffff1916815260200190815260200160002060009054906101000a900460ff169050919050565b600060086000610bda868686611f09565b6000191660001916815260200190815260200160002060009054906101000a900460ff1690509392505050565b60076020528060005260406000206000915090505481565b6000610c2a8261208d565b1515610c3557600080fd5b6002600083815260200190815260200160002060009054906101000a900473ffffffffffffffffffffffffffffffffffffffff169050919050565b6000610c7b82611be2565b90508073ffffffffffffffffffffffffffffffffffffffff168373ffffffffffffffffffffffffffffffffffffffff1614151515610cb857600080fd5b8073ffffffffffffffffffffffffffffffffffffffff163373ffffffffffffffffffffffffffffffffffffffff161480610cf85750610cf78133611e75565b5b1515610d0357600080fd5b826002600084815260200190815260200160002060006101000a81548173ffffffffffffffffffffffffffffffffffffffff021916908373ffffffffffffffffffffffffffffffffffffffff160217905550818373ffffffffffffffffffffffffffffffffffffffff168273ffffffffffffffffffffffffffffffffffffffff167f8c5be1e5ebec7d5bd14f71427d1e84f3dd0314c0f7b2291e5b200ac8c7c3b92560405160405180910390a4505050565b6060806060806060600660008781526020019081526020016000206000016006600088815260200190815260200160002060010160066000898152602001908152602001600020600201600001600660008a8152602001908152602001600020600201600101600660008b8152602001908152602001600020600201600201848054600181600116156101000203166002900480601f016020809104026020016040519081016040528092919081815260200182805460018160011615610100020316600290048015610ec95780601f10610e9e57610100808354040283529160200191610ec9565b820191906000526020600020905b815481529060010190602001808311610eac57829003601f168201915b50505050509450838054600181600116156101000203166002900480601f016020809104026020016040519081016040528092919081815260200182805460018160011615610100020316600290048015610f655780601f10610f3a57610100808354040283529160200191610f65565b820191906000526020600020905b815481529060010190602001808311610f4857829003601f168201915b50505050509350828054600181600116156101000203166002900480601f0160208091040260200160405190810160405280929190818152602001828054600181600116156101000203166002900480156110015780601f10610fd657610100808354040283529160200191611001565b820191906000526020600020905b815481529060010190602001808311610fe457829003601f168201915b50505050509250818054600181600116156101000203166002900480601f01602080910402602001604051908101604052809291908181526020018280546001816001161561010002031660029004801561109d5780601f106110725761010080835404028352916020019161109d565b820191906000526020600020905b81548152906001019060200180831161108057829003601f168201915b50505050509150808054600181600116156101000203166002900480601f0160208091040260200160405190810160405280929190818152602001828054600181600116156101000203166002900480156111395780601f1061110e57610100808354040283529160200191611139565b820191906000526020600020905b81548152906001019060200180831161111c57829003601f168201915b505050505090509450945094509450945091939590929450565b61115d33826120ff565b151561116857600080fd5b600073ffffffffffffffffffffffffffffffffffffffff168273ffffffffffffffffffffffffffffffffffffffff16141515156111a457600080fd5b6111ae8382612194565b6111b88382612297565b6111c282826123c6565b808273ffffffffffffffffffffffffffffffffffffffff168473ffffffffffffffffffffffffffffffffffffffff167fddf252ad1be2c89b69c2b068fc378daa952ba7f163c4a11628f55a4df523b3ef60405160405180910390a4505050565b6000806000600760008581526020019081526020016000205411151561124757600080fd5b600760008481526020019081526020016000205491503073ffffffffffffffffffffffffffffffffffffffff16636352211e846040518263ffffffff167c010000000000000000000000000000000000000000000000000000000002815260040180828152602001915050602060405180830381600087803b1580156112cc57600080fd5b505af11580156112e0573d6000803e3d6000fd5b505050506040513d60208110156112f657600080fd5b8101908080519060200190929190505050905081341015151561131857600080fd5b6113228184612297565b61132c33846123c6565b8073ffffffffffffffffffffffffffffffffffffffff166108fc839081150290604051600060405180830381858888f19350505050158015611372573d6000803e3d6000fd5b50813411156113c5573373ffffffffffffffffffffffffffffffffffffffff166108fc8334039081150290604051600060405180830381858888f193505050501580156113c3573d6000803e3d6000fd5b505b505050565b3373ffffffffffffffffffffffffffffffffffffffff163073ffffffffffffffffffffffffffffffffffffffff16636352211e846040518263ffffffff167c010000000000000000000000000000000000000000000000000000000002815260040180828152602001915050602060405180830381600087803b15801561145057600080fd5b505af1158015611464573d6000803e3d6000fd5b505050506040513d602081101561147a57600080fd5b810190808051906020019092919050505073ffffffffffffffffffffffffffffffffffffffff161415156114ad57600080fd5b8060076000848152602001908152602001600020819055505050565b6114e58383836020604051908101604052806000815250611e4d565b505050565b60055481565b60006114fa61283d565b61150261285f565b600560008154809291906001019190505550600554925060405180600001905060405180910390206000191660066000600554815260200190815260200160002060020160000160405160200180828054600181600116156101000203166002900480156115a75780601f106115855761010080835404028352918201916115a7565b820191906000526020600020905b815481529060010190602001808311611593575b50509150506040516020818303038152906040526040518082805190602001908083835b6020831015156115f057805182526020820191506020810190506020830392506115cb565b6001836020036101000a03801982511681845116808217855250505050505090500191505060405180910390206000191614151561162d57600080fd5b604051806000019050604051809103902060001916866040516020018082805190602001908083835b60208310151561167b5780518252602082019150602081019050602083039250611656565b6001836020036101000a0380198251168184511680821785525050505050509050019150506040516020818303038152906040526040518082805190602001908083835b6020831015156116e457805182526020820191506020810190506020830392506116bf565b6001836020036101000a0380198251168184511680821785525050505050509050019150506040518091039020600019161415151561172257600080fd5b604051806000019050604051809103902060001916856040516020018082805190602001908083835b602083101515611770578051825260208201915060208101905060208303925061174b565b6001836020036101000a0380198251168184511680821785525050505050509050019150506040516020818303038152906040526040518082805190602001908083835b6020831015156117d957805182526020820191506020810190506020830392506117b4565b6001836020036101000a0380198251168184511680821785525050505050509050019150506040518091039020600019161415151561181757600080fd5b604051806000019050604051809103902060001916846040516020018082805190602001908083835b6020831015156118655780518252602082019150602081019050602083039250611840565b6001836020036101000a0380198251168184511680821785525050505050509050019150506040516020818303038152906040526040518082805190602001908083835b6020831015156118ce57805182526020820191506020810190506020830392506118a9565b6001836020036101000a0380198251168184511680821785525050505050509050019150506040518091039020600019161415151561190c57600080fd5b6000831415151561191c57600080fd5b611927868686610bc9565b15151561193357600080fd5b6060604051908101604052808781526020018681526020018581525091506060604051908101604052808981526020018881526020018381525090508060066000858152602001908152602001600020600082015181600001908051906020019061199f929190612887565b5060208201518160010190805190602001906119bc929190612887565b5060408201518160020160008201518160000190805190602001906119e2929190612887565b5060208201518160010190805190602001906119ff929190612887565b506040820151816002019080519060200190611a1c929190612887565b5050509050506001600860008888886040516020018084805190602001908083835b602083101515611a635780518252602082019150602081019050602083039250611a3e565b6001836020036101000a03801982511681845116808217855250505050505090500183805190602001908083835b602083101515611ab65780518252602082019150602081019050602083039250611a91565b6001836020036101000a03801982511681845116808217855250505050505090500182805190602001908083835b602083101515611b095780518252602082019150602081019050602083039250611ae4565b6001836020036101000a03801982511681845116808217855250505050505090500193505050506040516020818303038152906040526040518082805190602001908083835b602083101515611b745780518252602082019150602081019050602083039250611b4f565b6001836020036101000a03801982511681845116808217855250505050505090500191505060405180910390206000191660001916815260200190815260200160002060006101000a81548160ff021916908315150217905550611bd83384612520565b5050505050505050565b6000806001600084815260200190815260200160002060009054906101000a900473ffffffffffffffffffffffffffffffffffffffff169050600073ffffffffffffffffffffffffffffffffffffffff168173ffffffffffffffffffffffffffffffffffffffff1614151515611c5757600080fd5b80915050919050565b60008073ffffffffffffffffffffffffffffffffffffffff168273ffffffffffffffffffffffffffffffffffffffff1614151515611c9d57600080fd5b600360008373ffffffffffffffffffffffffffffffffffffffff1673ffffffffffffffffffffffffffffffffffffffff168152602001908152602001600020549050919050565b60086020528060005260406000206000915054906101000a900460ff1681565b611d0e3382612520565b50565b3373ffffffffffffffffffffffffffffffffffffffff168273ffffffffffffffffffffffffffffffffffffffff1614151515611d4c57600080fd5b80600460003373ffffffffffffffffffffffffffffffffffffffff1673ffffffffffffffffffffffffffffffffffffffff16815260200190815260200160002060008473ffffffffffffffffffffffffffffffffffffffff1673ffffffffffffffffffffffffffffffffffffffff16815260200190815260200160002060006101000a81548160ff0219169083151502179055508173ffffffffffffffffffffffffffffffffffffffff163373ffffffffffffffffffffffffffffffffffffffff167f17307eab39ab6107e8899845ad3d59bd9653f200f220920489ca2b5937696c3183604051808215151515815260200191505060405180910390a35050565b611e58848484611153565b611e64848484846125c6565b1515611e6f57600080fd5b50505050565b6000600460008473ffffffffffffffffffffffffffffffffffffffff1673ffffffffffffffffffffffffffffffffffffffff16815260200190815260200160002060008373ffffffffffffffffffffffffffffffffffffffff1673ffffffffffffffffffffffffffffffffffffffff16815260200190815260200160002060009054906101000a900460ff16905092915050565b60008383836040516020018084805190602001908083835b602083101515611f465780518252602082019150602081019050602083039250611f21565b6001836020036101000a03801982511681845116808217855250505050505090500183805190602001908083835b602083101515611f995780518252602082019150602081019050602083039250611f74565b6001836020036101000a03801982511681845116808217855250505050505090500182805190602001908083835b602083101515611fec5780518252602082019150602081019050602083039250611fc7565b6001836020036101000a03801982511681845116808217855250505050505090500193505050506040516020818303038152906040526040518082805190602001908083835b6020831015156120575780518252602082019150602081019050602083039250612032565b6001836020036101000a038019825116818451168082178552505050505050905001915050604051809103902090509392505050565b6000806001600084815260200190815260200160002060009054906101000a900473ffffffffffffffffffffffffffffffffffffffff169050600073ffffffffffffffffffffffffffffffffffffffff168173ffffffffffffffffffffffffffffffffffffffff161415915050919050565b60008061210b83611be2565b90508073ffffffffffffffffffffffffffffffffffffffff168473ffffffffffffffffffffffffffffffffffffffff16148061217a57508373ffffffffffffffffffffffffffffffffffffffff1661216284610c1f565b73ffffffffffffffffffffffffffffffffffffffff16145b8061218b575061218a8185611e75565b5b91505092915050565b8173ffffffffffffffffffffffffffffffffffffffff166121b482611be2565b73ffffffffffffffffffffffffffffffffffffffff161415156121d657600080fd5b600073ffffffffffffffffffffffffffffffffffffffff166002600083815260200190815260200160002060009054906101000a900473ffffffffffffffffffffffffffffffffffffffff1673ffffffffffffffffffffffffffffffffffffffff161415156122935760006002600083815260200190815260200160002060006101000a81548173ffffffffffffffffffffffffffffffffffffffff021916908373ffffffffffffffffffffffffffffffffffffffff1602179055505b5050565b8173ffffffffffffffffffffffffffffffffffffffff166122b782611be2565b73ffffffffffffffffffffffffffffffffffffffff161415156122d957600080fd5b61232c6001600360008573ffffffffffffffffffffffffffffffffffffffff1673ffffffffffffffffffffffffffffffffffffffff168152602001908152602001600020546127e890919063ffffffff16565b600360008473ffffffffffffffffffffffffffffffffffffffff1673ffffffffffffffffffffffffffffffffffffffff1681526020019081526020016000208190555060006001600083815260200190815260200160002060006101000a81548173ffffffffffffffffffffffffffffffffffffffff021916908373ffffffffffffffffffffffffffffffffffffffff1602179055505050565b600073ffffffffffffffffffffffffffffffffffffffff166001600083815260200190815260200160002060009054906101000a900473ffffffffffffffffffffffffffffffffffffffff1673ffffffffffffffffffffffffffffffffffffffff1614151561243457600080fd5b816001600083815260200190815260200160002060006101000a81548173ffffffffffffffffffffffffffffffffffffffff021916908373ffffffffffffffffffffffffffffffffffffffff1602179055506124d96001600360008573ffffffffffffffffffffffffffffffffffffffff1673ffffffffffffffffffffffffffffffffffffffff1681526020019081526020016000205461280990919063ffffffff16565b600360008473ffffffffffffffffffffffffffffffffffffffff1673ffffffffffffffffffffffffffffffffffffffff168152602001908152602001600020819055505050565b600073ffffffffffffffffffffffffffffffffffffffff168273ffffffffffffffffffffffffffffffffffffffff161415151561255c57600080fd5b61256682826123c6565b808273ffffffffffffffffffffffffffffffffffffffff16600073ffffffffffffffffffffffffffffffffffffffff167fddf252ad1be2c89b69c2b068fc378daa952ba7f163c4a11628f55a4df523b3ef60405160405180910390a45050565b6000806125e88573ffffffffffffffffffffffffffffffffffffffff1661282a565b15156125f757600191506127df565b8473ffffffffffffffffffffffffffffffffffffffff1663150b7a02338887876040518563ffffffff167c0100000000000000000000000000000000000000000000000000000000028152600401808573ffffffffffffffffffffffffffffffffffffffff1673ffffffffffffffffffffffffffffffffffffffff1681526020018473ffffffffffffffffffffffffffffffffffffffff1673ffffffffffffffffffffffffffffffffffffffff16815260200183815260200180602001828103825283818151815260200191508051906020019080838360005b838110156126ec5780820151818401526020810190506126d1565b50505050905090810190601f1680156127195780820380516001836020036101000a031916815260200191505b5095505050505050602060405180830381600087803b15801561273b57600080fd5b505af115801561274f573d6000803e3d6000fd5b505050506040513d602081101561276557600080fd5b8101908080519060200190929190505050905063150b7a027c0100000000000000000000000000000000000000000000000000000000027bffffffffffffffffffffffffffffffffffffffffffffffffffffffff1916817bffffffffffffffffffffffffffffffffffffffffffffffffffffffff19161491505b50949350505050565b6000808383111515156127fa57600080fd5b82840390508091505092915050565b600080828401905083811015151561282057600080fd5b8091505092915050565b600080823b905060008111915050919050565b6060604051908101604052806060815260200160608152602001606081525090565b60a0604051908101604052806060815260200160608152602001612881612907565b81525090565b828054600181600116156101000203166002900490600052602060002090601f016020900481019282601f106128c857805160ff19168380011785556128f6565b828001600101855582156128f6579182015b828111156128f55782518255916020019190600101906128da565b5b5090506129039190612929565b5090565b6060604051908101604052806060815260200160608152602001606081525090565b61294b91905b8082111561294757600081600090555060010161292f565b5090565b905600a165627a7a723058203ec20cfb5c2034ac043f72d3edb0058eca2b745a27c9affb6d0193b5b3e3dbcf0029",
  "source": "pragma solidity ^0.4.24;\n\nimport '../node_modules/openzeppelin-solidity/contracts/token/ERC721/ERC721.sol';\n\ncontract StarNotary is ERC721 { \n\n    struct Coordinates {\n        string dec;      \n        string mag;        \n        string cent;\n    }\n\n    struct Star { \n        string name; \n        string story;\n        Coordinates coordinates;        \n    }\n\n    uint256 public tokenheigth;\n\n    mapping(uint256 => Star) public tokenIdToStarInfo; \n    mapping(uint256 => uint256) public starsForSale;\n    mapping(bytes32 => bool) public starHashMap;\n\n    function createStar(string _name, string _story, string _dec, string _mag, string _cent) public { \n\n        tokenheigth++;\n        uint256 _tokenId = tokenheigth;\n        \n        require(keccak256(abi.encodePacked(tokenIdToStarInfo[tokenheigth].coordinates.dec)) == keccak256(\"\"));\n\n        require(keccak256(abi.encodePacked(_dec)) != keccak256(\"\"));\n        require(keccak256(abi.encodePacked(_mag)) != keccak256(\"\"));\n        require(keccak256(abi.encodePacked(_cent)) != keccak256(\"\"));\n        require(_tokenId != 0);\n        require(!checkIfStarExist(_dec, _mag, _cent));\n\n        Coordinates memory coordinates = Coordinates(_dec, _mag, _cent);\n        Star memory newStar = Star(_name, _story, coordinates);\n\n        tokenIdToStarInfo[_tokenId] = newStar;\n\n        starHashMap[keccak256(abi.encodePacked(_dec, _mag, _cent))] = true;\n\n        _mint(msg.sender, _tokenId);\n    }\n\n    function putStarUpForSale(uint256 _tokenId, uint256 _price) public { \n        require(this.ownerOf(_tokenId) == msg.sender);\n        \n        starsForSale[_tokenId] = _price;\n    }\n\n    function buyStar(uint256 _tokenId) public payable { \n        require(starsForSale[_tokenId] > 0);\n        \n        uint256 starCost = starsForSale[_tokenId];\n        address starOwner = this.ownerOf(_tokenId);\n        require(msg.value >= starCost);\n\n        _removeTokenFrom(starOwner, _tokenId);\n        _addTokenTo(msg.sender, _tokenId);\n        \n        starOwner.transfer(starCost);\n\n        if(msg.value > starCost) { \n            msg.sender.transfer(msg.value - starCost);\n        }\n    }\n\n    function checkIfStarExist(string _dec, string _mag, string _cent) public view returns(bool) {\n        return starHashMap[generateStarHash(_dec, _mag, _cent)];\n    }\n\n    function mint(uint256 _tokenId) public {\n        super._mint(msg.sender, _tokenId);\n    }\n\n    function tokenIdToStarInfo(uint256 _tokenId) public view returns (string, string, string, string, string){\n        return (\n            tokenIdToStarInfo[_tokenId].name,\n            tokenIdToStarInfo[_tokenId].story,\n            tokenIdToStarInfo[_tokenId].coordinates.dec,\n            tokenIdToStarInfo[_tokenId].coordinates.mag,\n            tokenIdToStarInfo[_tokenId].coordinates.cent\n        );\n    }\n\n    function generateStarHash(string _dec, string _mag, string _cent) private pure returns(bytes32) {\n        return keccak256(abi.encodePacked(_dec, _mag, _cent));\n    }\n\n}",
  "sourcePath": "C:\\Users\\ofbon\\Google Drive\\UDACITY\\blockchain\\Taller 2\\project-2\\ethereum\\smart_contracts\\contracts\\StarNotary.sol",
  "compiler": {
    "name": "solc",
    "version": "0.4.24+commit.e67f0147.Emscripten.clang"
  },
  "schemaVersion": "2.0.1",
  "updatedAt": "2018-11-08T02:18:48.635Z"
}